:040000001CEF7BF086
:10F466008B8C12008B9C120000F08B8E12008B9EF0
:10F4760000F01200008030000000300000012F6E06
:10F48600000E2E6E2F5079EC7AF02E6E1200000EC2
:10F496002E6E000E79EC7AF02E6E2E5053EF7AF027
:10F4A600120053EC7BF02CEC7EF0D2EC7CF05AEFA1
:10F4B6007AF000EF00F0000E306E2E5079EC7AF004
:10F4C600306E2F5079EC7AF0306E1200000E326EEC
:10F4D6003050800979EC7AF0326E2F5079EC7AF060
:10F4E600326E2E5079EC7AF0326E12002C6E000ECF
:10F4F6002D6E2CC0C9FF80EF7AF0C7A085EF7AF099
:10F5060087EF7AF080EF7AF0C9CF2DF02D501200F8
:10F516003AEC7AF033C02EF034C02FF035C030F01C
:10F5260036C031F069EC7AF0375042EC7AF037ECBD
:10F536007AF01200000E326E2E5079EC7AF0326EAE
:10F546002F5079EC7AF0326E305079EC7AF0326ED8
:10F55600315079EC7AF0326E1200000E326E305075
:10F5660079EC7AF0326E2F5079EC7AF0326E2E50BA
:10F5760079EC7AF0326E000E79EC7AF0326E120087
:10F586002F6E000E306E3AEC7AF02F5079EC7AF04E
:10F59600306E2E5079EC7AF0306E000E79EC7AF0FF
:10F5A600306E37EC7AF012003AEC7AF033C02EF077
:10F5B60034C02FF035C030F036C031F069EC7AF047
:10F5C60037C02EF038C02FF05EEC7AF037EC7AF0C8
:10F5D6001200000E376E3AEC7AF033C02EF034C0CB
:10F5E6002FF035C030F036C031F0B0EC7AF04AEC8E
:10F5F6007AF0376E37EC7AF0375002EF7BF0120074
:10F606003AEC7AF033C02EF034C02FF035C030F02B
:10F6160036C031F069EC7AF037C02EF038C02FF0E2
:10F6260039C030F03AC031F09DEC7AF037EC7AF020
:10F63600120000EE01F02B0EEE6AE806FDE17A0EEE
:10F64600F66EF40EF76E000EF86E00EE50F010EE49
:10F656000AF00900F5CFEEFFE550E150FAE10001AE
:10F6660054EF7AF02E502C242F6E000E2D20306E83
:10F67600100E305CD8A042EF7BF044EF7BF04CEFED
:10F686007BF0000E2F242F6EF00E3020306E4CEFE4
:10F696007BF02FC02CF030C02DF052EF7BF0120023
:10F6A600000E0F01386F000E0F01396F000E0F01AB
:10F6B6003A6F000E0F013B6F949E949C949694882B
:10F6C600949A958E959C958A95988A80C69AC69E98
:10F6D600C69CC698C696C694C692C680C79EC78C58
:10F6E600C790C68A1200000E2D6E000E2D6E630E98
:10F6F6002D6480EF7BF082EF7BF086EF7BF09BEF53
:10F706007BF09BEF7BF04E0E2C6EEB0EE82E89EF16
:10F716007BF02C2E89EF7BF000F02D2A630E2D64F2
:10F7260097EF7BF099EF7BF086EF7BF09BEF7BF01A
:10F7360012004E0E2C6EEB0EE82E9FEF7BF02C2E59
:10F746009FEF7BF000F04E0E2C6EEB0EE82EA9EF2D
:10F756007BF02C2EA9EF7BF000F04E0E2C6EEB0EFC
:10F76600E82EB3EF7BF02C2EB3EF7BF000F04E0EBD
:10F776002C6EEB0EE82EBDEF7BF02C2EBDEF7BF052
:10F7860000F01200000E426E000E436E000E446E34
:10F79600000E456E3AEC7AF03EC02EF03FC02FF0D8
:10F7A60040C030F041C031F0B0EC7AF01DEC7CF096
:10F7B6002EC042F02FC043F030C044F031C045F0B7
:10F7C60037EC7AF042C03EF043C03FF044C040F010
:10F7D60045C041F0EFEF7BF01200F80E3E6E200EB2
:10F7E6003F6E300E406E000E416EC5EC7BF03EC0A3
:10F7F60048F03FC049F0FC0E3E6E200E3F6E300EC4
:10F80600406E000E416EC5EC7BF03EC04AF03FC034
:10F816004BF048504A1807E149504B18D8A416EF48
:10F826007CF018EF7CF0F0EF7BF04AC046F04BC05E
:10F8360047F01200000E366E000E376E000E386E60
:10F84600000E396E000E3A6E000E3B6E000E3C6ED8
:10F85600000E3D6E000E79EC7AF0326E32503A6E42
:10F866003B6A3C6A3D6A3A503610366E3B5037105A
:10F87600376E3C503810386E3D503910396E000ED8
:10F8860079EC7AF0326E32503A6E3B6A3C6A3D6AE7
:10F896003AC033F03BC034F03CC035F0326A000E5B
:10F8A60032143A6EFF0E33143B6E000E34143C6E67
:10F8B600000E35143D6E3A503610366E3B503710FA
:10F8C600376E3C503810386E3D503910396E000E88
:10F8D60079EC7AF0326E32503A6E3B6A3C6A3D6A97
:10F8E6003AC032F03BC033F03CC034F03DC035F096
:10F8F60033C035F032C034F0336A326A000E321447
:10F906003A6E000E33143B6EFF0E34143C6E000E3E
:10F9160035143D6E3A503610366E3B503710376E02
:10F926003C503810386E3D503910396E000E79EC67
:10F936007AF0326E32503A6E3B6A3C6A3D6A3AC0A1
:10F9460032F03BC033F03CC034F03DC035F032C03D
:10F9560035F0346A336A326A000E32143A6E000E9B
:10F9660033143B6E000E34143C6EFF0E35143D6EA0
:10F976003A503610366E3B503710376E3C503810C2
:10F98600386E3D503910396E36C02EF037C02FF024
:10F9960038C030F039C031F0D1EF7CF01200F0EC15
:10F9A6007BF046C00BF047C00CF0DAEF7CF0285035
:10F9B60029102A102B10D8A4E3EF7CF0E5EF7CF099
:10F9C600EFEF7CF0FF0E286E000E296E000E2A6EF9
:10F9D600000E2B6EF9EF7CF0000E286E000E296EDD
:10F9E600000E2A6E000E2B6EF9EF7CF03AEC7AF0E0
:10F9F6000B504C6E0C504D6E4E6A4F6A000E4C24E6
:10FA06002E6E800E4D202F6E300E4E20306E000E64
:10FA16004F20316E69EC7AF0000E2E6EFF0E2F6EBF
:10FA2600FF0E306EFF0E316E9DEC7AF00BC02CF09F
:10FA36000CC02DF0040E2E6E35EC7BF02CC00BF0B6
:10FA46002DC00CF0000E2E6E000E2F6E000E306EC6
:10FA5600020E316E9DEC7AF00BC02CF00CC02DF02E
:10FA6600040E2E6E35EC7BF02CC00BF02DC00CF086
:10FA7600070E2E6E000E2F6E000E306E260E316EA5
:10FA86009DEC7AF00BC02CF00CC02DF0040E2E6EFF
:10FA960035EC7BF02CC00BF02DC00CF0FF0E2814BB
:10FAA6004C6E000E29144D6E000E2A144E6E000E7A
:10FAB6002B144F6E4DC04FF04CC04EF04D6A4C6A41
:10FAC600000E4C102E6E000E4D102F6E000E4E10B6
:10FAD600306E040E4F10316E9DEC7AF00BC02CF098
:10FAE6000CC02DF0040E2E6E35EC7BF02CC00BF006
:10FAF6002DC00CF0020E2E6E000E2F6E000E306E14
:10FB06001F0E316E9DEC7AF00BC02CF00CC02DF060
:10FB1600040E2E6E35EC7BF02CC00BF02DC00CF0D5
:10FB2600FF0E58144C6E1F0E59144D6E4E6A4F6AD6
:10FB3600000E4C102E6E000E4D102F6E000E4E1045
:10FB4600306E0D0E4F10316E9DEC7AF00BC02CF01E
:10FB56000CC02DF0040E2E6E35EC7BF02CC00BF095
:10FB66002DC00CF0400E2E6E060E2F6E200E306E3F
:10FB7600430E316E9DEC7AF00BC02CF00CC02DF0CC
:10FB8600040E2E6E35EC7BF02CC00BF02DC00CF065
:10FB9600000E2E6E000E2F6E000E306E210E316E90
:10FBA6009DEC7AF00BC02CF00CC02DF0040E2E6EDE
:10FBB60035EC7BF02CC00BF02DC00CF0000E2E6E39
:10FBC600000E2F6E000E306E000E316E9DEC7AF038
:10FBD6000BC02CF00CC02DF0040E2E6E35EC7BF015
:10FBE6002CC00BF02DC00CF0010E2E6EFF0E2F6EEA
:10FBF600FF0E306EFF0E316E9DEC7AF00BC02CF0CE
:10FC06000CC02DF0040E2E6E35EC7BF02CC00BF0E4
:10FC16002DC00CF037EC7AF0FC0E336E200E346EED
:10FC2600300E356E000E366E0BC037F00CC038F055
:10FC3600396A3A6A03EC7BF0F0EC7BF046C00BF0D5
:10FC460047C00CF076EC7BF0DAEF7CF0DAEF7CF074
:10FC5600120035EC7AF09CEC7BF033EC7AF09CECFD
:10FC66007BF0000E2E6E000EC3EC7AF076EC7BF085
:10FC76003FEF7EF03FEF7EF0000E336E200E346EC7
:10FC8600300E356E000E366EECEC7AF07C0AD8A497
:10FC96004FEF7EF051EF7EF03FEF7EF057EF7EF0B4
:10FCA60057EF7EF057EF7EF0200E336E200E346E47
:10FCB600300E356E000E366EECEC7AF00009D8A4E4
:10FCC60067EF7EF069EF7EF057EF7EF06BEF7EF028
:10FCD600030E206E200E1F6E010E106EE00E0F6ECC
:10FCE600030E0E6EA00E0D6E000E126E580E116EE5
:10FCF600000E146E000E136E000E166E300E156E8C
:10FD0600020E186E0D0E176E000E1A6E200E196E6C
:10FD1600000E1C6E000E1B6E000E1E6E030E1D6E78
:10FD2600020E256E000E276E010E266E340E336E01
:10FD3600200E346E300E356E000E366E1FC037F054
:10FD460020C038F0D7EC7AF02C0E336E200E346ECD
:10FD5600300E356E000E366E0DC037F00EC038F020
:10FD6600D7EC7AF0300E336E200E346E300E356ED0
:10FD7600000E366E11C037F012C038F0D7EC7AF0AC
:10FD8600380E336E200E346E300E356E000E366E23
:10FD960013C037F014C038F0D7EC7AF03C0E336E4F
:10FDA600200E346E300E356E000E366E15C037F0EE
:10FDB60016C038F0D7EC7AF0480E336E200E346E4B
:10FDC600300E356E000E366E0FC037F010C038F0AC
:10FDD600D7EC7AF0400E336E200E346E300E356E50
:10FDE600000E366E17C037F018C038F0D7EC7AF030
:10FDF600440E336E200E346E300E356E000E366EA7
:10FE060019C037F01AC038F0D7EC7AF04C0E336EC2
:10FE1600200E346E300E356E000E366E1BC037F077
:10FE26001CC038F0D7EC7AF0500E336E200E346ECC
:10FE3600300E356E000E366E1DC037F01EC038F01F
:10FE4600D7EC7AF0640E336E200E346E300E356EBB
:10FE5600000E366E27C037F08BEC7AF06C0E336EE0
:10FE6600200E346E300E356E000E366E26C037F01C
:10FE76008BEC7AF0940E336E200E346E300E356EA7
:10FE8600000E366EECEC7AF0216E21508009216E60
:10FE9600940E336E200E346E300E356E000E366EB6
:10FEA60021C037F08BEC7AF0700E336E200E346E74
:10FEB600300E356E000E366E25C037F08BEC7AF0BC
:10FEC600D40E336E200E346E300E356E000E366E46
:10FED6007F0E376E8BEC7AF0180E336E210E346E71
:10FEE600300E356E000E366E040E386EB00E376E5E
:10FEF600D7EC7AF0800E336E200E346E300E356EEF
:10FF0600000E366E000E376E8BEC7AF0840E336E72
:10FF1600200E346E300E356E000E366E000E376EC5
:10FF26008BEC7AF0880E336E200E346E300E356E02
:10FF3600000E366E600E386E000E376ED7EC7AF015
:10FF4600000E546E000E556E300E566E000E576E35
:10FF560054C033F055C034F056C035F057C036F0B3
:10FF6600000E376E000E386E000E396E020E3A6EB7
:10FF760003EC7BF0040E5426000E5522562257221F
:10FF860054C033F055C034F056C035F057C036F083
:10FF9600070E376E000E386E000E396E260E3A6E5C
:10FFA60003EC7BF0040E5426000E552256225722EF
:10FFB60054C033F055C034F056C035F057C036F053
:10FFC600000E376E000E386E000E396E000E3A6E59
:10FFD60003EC7BF0540E336E200E346E300E356E0D
:10FFE600000E366E020E376E000E386E000E396E3B
:0AFFF600000E3A6E03EC7BF01200DF
:020000040020DA
:08000000FFFFFFFFFFFFFFFF00
:020000040030CA
:0E000000FFF31B3CFFBF85FF0FC00FE00F405A
:00000001FF
